:100000000C946E060C9496060C9496060C94960628
:100010000C9496060C9496060C9496060C949606F0
:100020000C9496060C9496060C94552B0C94C42BA9
:100030000C9496060C9496060C9496060C949606D0
:100040000C9496060C944A2E0C9496060C949606E4
:100050000C9496060C9496060C9496060C94F62D29
:100060000C9496060C9496060C9496060C949606A0
:100070000C9496060C9496060C9496060C94960690
:100080000C94402E0C9496060C9496060C949606AE
:100090000C9496060C9496060C9496060C94960670
:1000A0000C9496060C9496060C9496064A015D01F3
:1000B000720188019F01B801D201EE010B022A02F0
:1000C0004B026E029302BA02E40210033F03700374
:1000D000A403DC03170455049704DD042705750504
:1000E000C80520067D06E00649070301FFB6BE18D5
:1000F0001C366E7C1C0C02010930408090F0FCFE26
:10010000FEFFFF000307070F0FA8FC8AAFA9AFAAE5
:10011000AE8AFCA8776D6F575B3D7D6E7F6B6F5C21
:100120002B777700001804F4F8F00000000804F4BE
:10013000F8F00000000004F4F8F00000000000F403
:10014000F8F00000000000F0F8F00000000000F0FF
:10015000F0F000000000181800000000001824242F
:100160001800001024429A994228102C421184A1B0
:100170009542144982000100800194AAF98DAEAC29
:10018000A8ACAE8DF9A81054547CFCF45C180000A7
:10019000090A0A3F3F2101034824AABEFEEAAE8CA9
:1001A000800805343E3E270000012828525ABCF43E
:1001B0005C180002051D3A0D3F3921015094A4B886
:1001C000F8E8F8300008120A2E3D3F1A0202003803
:1001D00074DCDC746C94200003273D3B2D0A120470
:1001E000070D040E060C0E0A0F050C0E060C0E0A67
:1001F000070D0C060E0C0C0A0F0D040E060C0C0C51
:1002000000070D0E060C0C00060D040E060C0E0960
:10021000020F050C060E0705020F050D040E06065B
:10022000060F050C060E060A18DC9CB43800000701
:100230003A22000018DC9CB43800003B270A100862
:100240000CEE4E5A1C00102B051D10000CEE4E5AE1
:100250001C0009150739200018B4ACB41800273A5F
:10026000023A27003068586830002E3505352E00D8
:1002700060D0B0D060002C3A0A3A2C00C6ADABADCD
:10028000C60008060006080098342C3418C0213A2D
:100290000B3A21000018DC9CB4381028070A120918
:1002A0008EDAFEDA8E321213131212312220BBBB09
:1002B000099BBBBBBBBBBBBBBBB010BBB111B0BFD1
:1002C00010BBBF1B00118F6AAFFF20F48020FC0120
:1002D0008F665F2BBBB3645CCCECF3CCF2808FE811
:1002E0001F275FA845F4DF888FE81F365333333B61
:1002F000F285F4430B0337F2808F699F47330BF38A
:10030000BBBBBBF48F46BBF4B03310837F4AAFFF57
:100310006716F35F881111133333333333333333B9
:100320003333333333115E335E43335E311110BBED
:10033000BBBBBBBBB21112111211112111118D02E5
:100340000D610B0D02218FC80002121BF3B0BF20FC
:1003500018DF3D5F4DF2B28F2B3333333330F4026D
:100360000FA88DF3D5F4DF318F4BBB0120BFFF17F2
:10037000316454996F2CCCCF2817F70BF4733337B3
:10038000FA145F2AAF8710113330BF881221337FF0
:100390002737F386F355F2CCCCF1BB1012128FA89D
:1003A0002112218F28217F225FE82111223333334C
:1003B00033312212121111128F2813333333333E8B
:1003C00033312220BB02111110BBBBBBBBBB0B0BDB
:1003D000BF2121BBBBB0211D182120BF5B46BFFF41
:1003E0004820F7BBDBB0208FE71CCECCCCF188F2E5
:1003F0007318FADF368F273333333336458F2DF5B5
:1004000018F28118FADF355F20120BBF1BB01658A7
:10041000F2DF528F28218F2737F5DF27206F3BF837
:10042000BB18F2DF37321F28128F3BBBBBB0333310
:100430001017FD817F1DF981187F90B02222333380
:10044000333337F2711133333333333111113333E3
:100450003CEF5B501BBBBBBBBBBBF2451BB054505E
:100460000110BBB0560BBBBF1DF6606FBEC568F573
:100470005F20BFB5F1DF655F2CCCC5F4D99513E2E1
:10048000565FD599CECCCCCC5056F55F4DAA611DA8
:100490001145CECCCCCC55F35AAF1DF65045F55C8A
:1004A000CCCC0550F2B015F1DF616CEC456F1DF25C
:1004B0005E4560699CCECBF76F50645CEF485F1D72
:1004C000F3BBBBBBDF19905AAF2DFC5F7DF27315F8
:1004D000F1DF9DF1AA45653333333333333333339F
:1004E000333333331133333333333333330000187F
:1004F000002800390043005400660071008900A103
:1005000000B200C300D400E200F70005011D013570
:100510000142015001620178018C019801AF01C6CE
:1005200001D201E401F8010E022202300248020861
:10053000087AFAFA6A3A38080000071C181F1610E1
:100540000008087AFAFA6A3A380800001F1E1C0BE5
:100550000E0C060404B57D7DB51D1C0400081D1F8E
:10056000060C0F08040404B5FD7DB51D1C040C1E0B
:10057000071C1E1713000008087AFAFA6A3A3808AE
:100580000000071E1C1916100008087AFAFA6A3AC9
:1005900038080000071E1C1C1711001010F4F4F49A
:1005A000D474701000000E19111E1C10000818F0F1
:1005B000F4E4A8C8D080000C1E03031D1D11000424
:1005C00004BD7D7DB51D1C04040F1C1603070E0C15
:1005D000063C4299BDBDBD9942BC04060E0F071FE3
:1005E0001E03013C4299BDBDBD99423C03031D1F42
:1005F000071F1D0303BC4299BDBDBD99423C0103C9
:100600001E1F070F0E0604C8887AAABAAA7A88C8DD
:100610000001171F0A1F17010008087AAABAAA7A50
:1006200008080103171F0A1F17030108087AAABA4E
:10063000AA7A08080603171F0A1F17030600C0E05E
:10064000E4F49D3D7DF59D9C0480C0E0E4F41D7DB7
:10065000FDF59D1C04C0C0E0E4B41DDDFDB51D1C0E
:1006600004101038380010383810003038101028B6
:10067000301010182810103818C0F0C0C0E0C0802A
:10068000D0C040B0C0C07080C0F040030F0303076B
:1006900003010B03020D03030E01030F020FFF1FE3
:1006A00000000810000004102000040000084000B2
:1006B000100000042000000000F0FFF87CEACEEA01
:1006C0007C0000000200090F0000030401000C0080
:1006D000000000000000000000000000000000001A
:1006E00000000000240027002A002D003000D5F073
:1006F0008D14A1C881CFD9F1AF20000408020110E8
:10070000408040102040804080080204018040204A
:100710001002011080102040402000000000250041
:1007200028002B002E0031000404040404030405F7
:10073000020202020403020202020606060606067E
:100740000404020202040414021302120215020736
:1007500002080204010C01060100060F7B321E157F
:100760000D06C653993C6E2499C2E775B6E3481648
:100770009BDFC7539B3B6B2B93C77F7B7F6F7F7D3B
:100780007F7F7F5F7B7F7F6F7F007777757757777E
:100790007700C7539B2B73070F0EC693A9743D9B1D
:1007A00063C0FE85354F4D3587FDFFFFE7C3CFC3DF
:1007B000A2670203010103070603030503050305FE
:1007C0000300FF1111111111FF00FF15131513156F
:1007D000FF00180E031E1D171D1E1C1E1D01021CEE
:1007E0001E07050301010E11110E00121F1019152D
:1007F00015121115150A0C0A1F08171515090E15E3
:100800001509011905030A15150A1215150E060F0B
:100810001E0F06080B00020202000009040000017E
:100820000202000005240010010524010101042436
:100830000206052406000107058103100040090493
:100840000100020A0000000705020240000007053F
:1008500083024000000403090412010002EF0201B8
:100860004041233680000101020301417264756931
:100870006E6F204C4C430041726475626F790000CA
:100880000000000000005F00000007000700147F68
:10089000147F14242A7F2A122313086462364956CF
:1008A00020500008070300001C2241000041221CC8
:1008B000002A1C7F1C2A08083E08080080703000AF
:1008C0000808080808000060600020100804023EC4
:1008D0005149453E00427F40007249494946214105
:1008E000494D331814127F1027454545393C4A4974
:1008F00049314121110907364949493646494929B3
:100900001E000014000000403400000008142241C2
:100910001414141414004122140802015909063E4B
:10092000415D594E7C1211127C7F494949363E4146
:100930004141227F4141413E7F494949417F090967
:1009400009013E414151737F0808087F00417F4102
:10095000002040413F017F081422417F4040404039
:100960007F021C027F7F0408107F3E4141413E7F91
:10097000090909063E4151215E7F09192946264988
:1009800049493203017F01033F4040403F1F20405F
:10099000201F3F4038403F63140814630304780469
:1009A000036159494D43007F414141020408102031
:1009B000004141417F0402010204404040404000A8
:1009C0000307080020545478407F284444383844B2
:1009D000444428384444287F385454541800087E2E
:1009E000090218A4A49C787F0804047800447D4080
:1009F000002040403D007F1028440000417F40001F
:100A00007C047804787C080404783844444438FC36
:100A10001824241818242418FC7C080404084854BA
:100A200054542404043F44243C4040207C1C204077
:100A3000201C3C4030403C44281028444C9090906E
:100A40007C4464544C4400083641000000770000A8
:100A5000004136080002010204023C2623263C1E07
:100A6000A1A161123A4040207A3854545559215579
:100A7000557941215454784121555478402054559A
:100A800079400C1E527212395555555939545454E7
:100A90005939555454580000457C410002457D4267
:100AA0000001457C40F0292429F0F0282528F07C1D
:100AB000545545002054547C547C0A097F493249DE
:100AC0004949323248484832324A4848303A41412E
:100AD000217A3A42402078009DA0A07D39444444C8
:100AE000393D4040403D3C24FF2424487E49436634
:100AF0002B2FFC2F2BFF0929F620C0887E0903200D
:100B0000545479410000447D413048484A323840CD
:100B100040227A007A0A0A727D0D19317D26292930
:100B20002F28262929292630484D40203808080832
:100B30000808080808382F10C8ACBA2F102834FA53
:100B400000007B000008142A142222142A1408959D
:100B500000220095AA005500AAAA55AA55AA00008D
:100B600000FF00101010FF00141414FF001010FFFD
:100B700000FF1010F010F0141414FC001414F7000F
:100B8000FF0000FF00FF1414F404FC141417101FDE
:100B900010101F101F1414141F00101010F000006C
:100BA00000001F101010101F10101010F010000087
:100BB00000FF101010101010101010FF1000000097
:100BC000FF140000FF00FF00001F10170000FC04CE
:100BD000F414141710171414F404F40000FF00F7B1
:100BE00014141414141414F700F714141417141014
:100BF000101F101F141414F4141010F010F0000043
:100C00001F101F0000001F14000000FC140000F063
:100C100010F01010FF10FF141414FF141010101F08
:100C200000000000F010FFFFFFFFFFF0F0F0F0F019
:100C3000FFFFFF0000000000FFFF0F0F0F0F0F3836
:100C4000444438447C2A2A3E147E02020606027E70
:100C5000027E0263554941633844443C04407E208F
:100C60001E2006027E020299A5E7A5991C2A492AA0
:100C70001C4C7201724C304A4D4D3030487848302F
:100C8000BC625A463D3E494949007E0101017E2A27
:100C90002A2A2A2A44445F444440514A444040445A
:100CA0004A51400000FF0103E080FF000008086B8C
:100CB0006B083612362436060F090F060000181886
:100CC000000000101000000004000000040E0400EA
:100CD00004041F040404041F0404652E11241FBE11
:100CE000CFEFDAE0DEBFCDBF12E0A0E0B1E0EEEA88
:100CF000FCE602C005900D92A63EB107D9F729E0A7
:100D0000A6EEB2E001C01D92AC33B207E1F716E0E7
:100D1000CEE6D6E004C02197FE010E944A36CD36C9
:100D2000D107C9F70E94E32F0C9455360C940000AC
:100D3000462F477066956695669590E8699FB00165
:100D4000112465537C4F860F972F911DFC018189DB
:100D500090E021E030E0042E02C0220F331F0A94FD
:100D6000E2F78223932302C0959587954A95E2F78F
:100D700008952F923F924F925F926F927F928F923F
:100D80009F92AF92BF92CF92DF92EF92FF920F931A
:100D90001F93CF93DF93CDB7DEB761970FB6F8946B
:100DA000DEBF0FBECDBF59874887ED86E82F082EDE
:100DB000000CFF0B622E712CAF01460D571D57FD25
:100DC00012C1462F062E000C550B10E0DA01A00FC1
:100DD000B11FB7FD08C160340CF005C157FF03C057
:100DE000519541955109942F9770362F67FF02C096
:100DF00037E0360F35953595359567FF04C048E0E7
:100E0000491B942F315048E0491B4E8743E015950C
:100E100007954A95E1F70B83182F1195482F440F3A
:100E2000440B142350E8852E912C8E1A9F0A6814C7
:100E300079040CF443012150211BCC2009F48EC00D
:100E40002F872FEF298350E83503100111243C87A9
:100E500070E060E0512C412CB12CA12CA101405834
:100E60005F4F5B874A872C852F3F0CF491C0A1010F
:100E70004A0D5B1D5F834E83CA84DB84CA0CDB1C76
:100E8000DD82CC82F12E0F85F8140CF081C0982EF3
:100E90009F0C402F002E000C550B598B488BFA01EC
:100EA000E40DF51D48855985E40FF51FE4915C8537
:100EB0005F3F09F49BC04E2F092E01C0440F0A94D6
:100EC000EAF7AE81BF81A90DB11D97FCBA95A55374
:100ED000BC4F5196FC9151972F2F242359F0CC24CD
:100EE000C394D12C088802C0CC0CDD1C0A94E2F714
:100EF0006C297D292D852130A9F54F2B51964C93D6
:100F0000992341F14C85473029F1AC81BD81A90D70
:100F1000B11D97FCBA95F0E00E8402C0F595E795F7
:100F20000A94E2F7A553BC4F5196DC9051974D2D92
:100F30004E2351F041E050E0002E02C0440F551FF7
:100F40000A94E2F7642B752B5D855130B1F4ED29DD
:100F50005196EC934981040FF39496CF1F8741E09B
:100F6000498371CFDD84D11003C040954F23C6CF94
:100F70002D85223029F64F27C1CFED84E11003C023
:100F8000E095ED21E5CF2D85223021F7ED25E0CF4D
:100F90005C855F5F5C87460C571C20E8A20EB11C85
:100FA000452F431B5B81451720F45C85583009F0C1
:100FB0005ACFCB0161960FB6F894DEBF0FBECDBFFE
:100FC000DF91CF911F910F91FF90EF90DF90CF9025
:100FD000BF90AF909F908F907F906F905F904F9059
:100FE0003F902F90089570E060E0E3CF91118DCF96
:100FF000B1CF8CED93E020E0B22FB111BFEFFC0137
:101000000024B193B193B193B1930394D1F70895B0
:10101000CF93DF93CDB7DEB729970FB6F894DEBF35
:101020000FBECDBF8230F4F099E0E5E3F1E0DE01E0
:10103000119601900D929A95E1F789300CF088E0B5
:10104000E1E0F0E0EC0FFD1FE80FF11D87FDFA95E0
:10105000808129960FB6F894DEBF0FBECDBFDF9119
:10106000CF91089580913E0190913F01A091400160
:10107000B091410189839A83AB83BC83E62F660FCD
:10108000FF0BF595E79581E090E08C0F9D1FE80F31
:10109000F91F608170E08091D1039091D2030E948A
:1010A00022369C0181E0232BA1F280E0D2CFFC010B
:1010B00080916203882311F13FB7F89482E0809316
:1010C000E9002091F200822F90E01816190614F41E
:1010D00081E090E0882339F0289844E6409361034A
:1010E0004091F1004083222339F02091F200211138
:1010F00003C02BE62093E8003FBF08958FEF9FEFDA
:1011000008952FB7F89483E08093E9009091E80068
:10111000892F807295FF04C09091F20080E4891BB2
:101120002FBF08958091590381110DC082E08093F3
:10113000550384E08093560310925803109257038E
:1011400081E08093590385E593E00895CF93DF9381
:101150001F92CDB7DEB76983DC01ED91FC9102806F
:10116000F381E02D41E050E0BE016F5F7F4F0995B4
:101170000F90DF91CF91089583E08093E9008091F3
:10118000F200882319F08AE38093E80008950E9412
:10119000810890E00895CF93DF931F92CDB7DEB71B
:1011A000FC018485958597FD08C02FEF3FEF3587BB
:1011B00024870F90DF91CF910895CE0101960E9470
:1011C0005708019719F4898190E0F3CF8FEF9FEFD3
:1011D000F0CF0F931F93CF93DF931F92CDB7DEB75E
:1011E0008C01FC018485958597FF0BC0CE0101968B
:1011F0000E945708019771F4898190E0F801958762
:101200008487F801848595850F90DF91CF911F9198
:101210000F9108958FEF9FEFF1CFFC0184859585A5
:1012200097FD0BC09FB7F89482E08093E90080910E
:10123000F2009FBF90E0019608959FB7F89482E076
:101240008093E9008091F2009FBF90E00895409163
:101250004F035091500320914D0330914E0342179C
:101260005307B4F49091E8009570E1F39091E80091
:1012700092FD19C08093F10080914F03909150032B
:1012800001968F739927892B19F48EEF8093E800CC
:1012900080914F0390915003019690935003809357
:1012A0004F0381E0089580E00895EF92FF920F933D
:1012B0001F93CF93DF93F82E192FE62E042F81E092
:1012C000860F880F0E94270983E00E942709CF2DEF
:1012D000D12FEC0EFD2EF11CCE15DF05B9F007FF66
:1012E00013C0FE0184910E942709182F80E00E94FC
:1012F0002709812321968111EFCFDF91CF911F9193
:101300000F91FF90EF9008958881EDCF81E0F5CFA8
:10131000DF92EF92FF920F931F93CF93DF93D82E1C
:101320008A01EB017B01E40EF51ECE15DF0559F0B5
:10133000D7FE12C0FE0184910E94270921968111D7
:10134000F4CF0FEF1FEFC801DF91CF911F910F91E5
:10135000FF90EF90DF9008958881EECF0F931F9359
:10136000CF93DF931F92CDB7DEB782E0898342E44B
:1013700050E063E178E080E80E9488090E949208CA
:10138000DC0112960D911C910115110589F0D8010F
:10139000ED91FC910280F381E02DBE016F5F7F4FE4
:1013A000C801099597FD04C0F80100851185ECCFAF
:1013B00089810F90DF91CF911F910F910895615016
:1013C00030F02091F100FC0120830196F8CF28989D
:1013D00084E6809361030895AF92BF92CF92DF922B
:1013E000EF92FF920F931F93CF93DF936C017B01DA
:1013F0008B01040F151FEB015E01AE18BF08C0176B
:10140000D10759F06991D601ED91FC910190F081DD
:10141000E02DC6010995892B79F7C501DF91CF91A0
:101420001F910F91FF90EF90DF90CF90BF90AF9002
:101430000895282F30E0F901EF53F94F9491F90105
:10144000E550F94F8491285D384FF901249122230A
:1014500009F430C09923E9F091509F30D0F4E92F7E
:10146000F0E0EB5CF54F0C944A36630A670A440AD5
:101470005B0A5F0A490A490A490A6A0A700A740A39
:10148000780A7E0A490A820A909180009F77909399
:101490008000E22FF0E0EE0FFF1FE65EF84FA5910F
:1014A000B4919FB7F894EC91611132C080958E236E
:1014B0008C939FBF0895909180009F7DE8CF90917D
:1014C0008000977FE4CF94B59F7794BDE2CF94B529
:1014D0009F7DFBCF909190009F7790939000D9CF04
:1014E000909190009F7DF9CF90919000977FF5CFDC
:1014F0009091C0009F779093C000CBCF9091C00097
:101500009F7DF9CF9091C200977F9093C200C1CF89
:101510008E2BCECFCF93DF9390E0FC01E550F94FB7
:101520002491885D984FFC0184918823C9F090E054
:10153000880F991FFC01E052F94FA591B491FC016D
:10154000E65EF84FC591D49161110DC09FB7F89434
:101550008C91209582238C938881282328839FBF98
:10156000DF91CF910895623051F49FB7F8943C9188
:10157000822F809583238C93E8812E2BEFCF8FB71A
:10158000F894EC912E2B2C938FBFEACF1F93CF931F
:10159000DF93182FEB0161E00E948A0A209739F44B
:1015A00060E0812FDF91CF911F910C94190ACF3FFA
:1015B000D10511F461E0F5CFE12FF0E0EF53F94FE1
:1015C000E491E150EF3008F07FC0F0E0E651F54FD4
:1015D0000C944A36F90A010B060B100B1A0B640B1C
:1015E000640B640B240B2E0B380B420B4F0B640B5C
:1015F000570B84B5806884BDC7BDDF91CF911F9123
:10160000089584B5806284BDC8BDF7CF8091800005
:10161000806880938000D0938900C0938800EDCFCC
:1016200080918000806280938000D0938B00C09373
:101630008A00E3CF80918000886080938000D093FF
:101640008D00C0938C00D9CF8091900080688093EA
:101650009000D0939900C0939800CFCF80919000D4
:10166000806280939000D0939B00C0939A00C5CF76
:1016700080919000886080939000D0939D00C093EB
:101680009C00BBCF8091C00080688093C000809197
:10169000C0008F7B8093C000C093CF00AECF8091FD
:1016A000C00080628093C000C093D000A6CF80911C
:1016B000C20088608093C2008091C2008B7F8093BB
:1016C000C200C093D20099CFC038D1050CF072CFC0
:1016D00067CF3FB7F8948091270390912803A0919A
:1016E0002903B0912A0326B5A89B05C02F3F19F006
:1016F0000196A11DB11D3FBFBA2FA92F982F882792
:10170000BC01CD01620F711D811D911D42E0660F6C
:10171000771F881F991F4A95D1F708958F929F923E
:10172000AF92BF92CF92DF92EF92FF924B015C019A
:101730000E94690B6B017C010E94690B6C197D0989
:101740008E099F09683E734081059105A8F321E049
:10175000821A9108A108B10888EEC80E83E0D81E4D
:10176000E11CF11C81149104A104B10429F7FF903C
:10177000EF90DF90CF90BF90AF909F908F900895A3
:101780008F929F92AF92BF92CF92DF92EF92FF9291
:101790000F931F93CF93DF936C017B018A0180919C
:1017A0002C01882309F45CC080916203882309F42A
:1017B00057C08091540380FF05C08091E000826093
:1017C0008093E000E801B12C8AEFA82E93E0892EE7
:1017D0002AE3922E209711F4BB20D9F10E948108B0
:1017E00081110AC0AA94AA20D9F161E070E080E0DA
:1017F00090E00E948E0BEECF8C171D0611F00CF0BE
:101800008C2F9FB7F8948092E9002091E80025FD85
:1018100002C09FBFDFCF282F30E0C21BD30BF701E0
:10182000815020F041914093F100FACFE20EF31E77
:10183000BB2021F09092E800B12CEBCF8091E80022
:1018400085FDE7CF9092E800BB24B394209709F37D
:10185000F3CF5D9884E680935303101611063CF095
:1018600081E090E0F6019383828310E000E0C801FC
:10187000DF91CF911F910F91FF90EF90DF90CF906C
:10188000BF90AF909F908F900895909114019130E8
:1018900031F48093150186E080931401089520911E
:1018A0001501281306C0943078F0915090931401DC
:1018B0000895963018F49F5F90931401909114014D
:1018C000963011F48093150108959091250320918D
:1018D0002403920F691760F4442319F080932503C1
:1018E00008956150609325038FEF8093240308953A
:1018F000981718F09093250308958F5F8093250320
:1019000081E0F3CF88E090E090932E0180932D0149
:1019100089E08093250381E0809324038093140160
:10192000089586E090E090932E0180932D0187E04A
:10193000809325038FEF80932403809115018111FB
:1019400009C080912F01909130010396909330014E
:1019500080932F01089580912D0190912E0107977A
:1019600049F480912103882329F080917A038B5FC9
:1019700080937A0383E090E090932E0180932D0171
:1019800088E08093250381E0809324031092200354
:101990008BE080931F0310921E03089510922E0176
:1019A00010922D011092250381E0809324038093EF
:1019B000140108951F93CF93DF93A82FB0E035E073
:1019C000839FF0011124E050FF4F83818F5F838359
:1019D000C82FD0E01481382F1303C001112497FDC4
:1019E0000F9634E0959587953A95E1F735E03A9F63
:1019F000F0013B9FF00D1124E050FF4F0190F0816A
:101A0000E02D8E0F9F1FFB0191838083CE01820FFB
:101A1000911D27FD9A959C012C9FC0012D9F900D33
:101A20003C9F900D112497FD0F9624E09595879586
:101A30002A95E1F795E09A9FF0019B9FF00D112404
:101A4000E050FF4F9281890FFA018083DF91CF919F
:101A50001F91089590E0880F991FFC01EA5EFE4FE8
:101A600030813F5F30832181422F50E0DA01AA5656
:101A7000BE4FAC910A2E000CBB0B3A171B06ACF004
:101A8000108246575E4FDB013C91DA014C91340FD6
:101A9000DB013C93243010F0215021838A5E9E4F5D
:101AA000FC0191818BE0891B089580E008959C01E1
:101AB000E0E0F1E090E084E0A081B181A837BC4E85
:101AC00009F4892F9F5F35969430B1F7843059F02F
:101AD00095E0899FF0011124E050FF4F318320836E
:101AE0006283138244830895E6E1F1E090E084E0AC
:101AF00021812F3F09F4892F9F5F32969430C1F7DF
:101B0000843049F0E82FF0E0EE0FFF1FEA5EFE4F51
:101B100010829BE0918308952F923F924F925F92A3
:101B20006F927F928F929F92AF92BF92CF92DF92ED
:101B3000EF92FF920F931F93CF93DF93CDB7DEB752
:101B40002A970FB6F894DEBF0FBECDBF89836C8392
:101B50004D8380916A0390916D03980F9E83805FFF
:101B600090916E03890F8F838091650320916803A4
:101B7000280F2A87885F8887622E712CF301EE0F69
:101B8000FF1FE351FB4FA590B4902295207F2A833D
:101B9000512C412C8A859885891708F0C2C0F30121
:101BA000E40DF51DEE0FFF1FE151FB4F2590349022
:101BB00080916503FA84F81AFF0CFF0CFF0C8091EA
:101BC000670326E0281BF20E8981811107C0DD24FE
:101BD000D3949D819F1554F0D12C08C029812C30BD
:101BE000D9F7DD24D3948D818F15B4F3812C9924FA
:101BF000939485E01FEFA214B30408F087C09920E6
:101C000099F0F501EB55FD4F94919B8392959F7050
:101C10009987882069F08985180F812C8FE091E0E1
:101C20009926A90CB11CE7CF2B812F702987F1CF02
:101C300099859F3009F467C01F5F2E81121778F3D2
:101C40009F81191708F062C029852E3049F49981C7
:101C50009D3079F42C812D3009F449C08DE0DFCF1F
:101C6000298599812917B0F19C819217B8F32C30FE
:101C700029F4D11031C0812C8CE0D1CF29852530B9
:101C800010F02B3059F5CA80C12A24E0C29EC00151
:101C90001124C8269C2D9695969596959C25917015
:101CA000298588E0289FA0011124465A584F809129
:101CB0006A03212F281B822F880F880F880F3091ED
:101CC0006C03C92EEE24E39408E028E06F2D831BFB
:101CD0000E94B9068985A3CF9CE099879985975082
:101CE000923040F491E08F30D9F290E0D9CF2DE0DE
:101CF0002987F4CF998599509230B8F791E02985DA
:101D00008213F3CFCDCF8824839489CF2A852F5F88
:101D10002A878FEF481A580A9A81905F9A83510157
:101D200039CF2A960FB6F894DEBF0FBECDBFDF9134
:101D3000CF911F910F91FF90EF90DF90CF90BF90C8
:101D4000AF909F908F907F906F905F904F903F905B
:101D50002F9008959C0190917703809178038917C3
:101D600090F49093780380916B0380937403809137
:101D70006603809373038091720380937103809153
:101D8000700380936F0380912D0190912E0109972C
:101D900054F13093300120932F0160937A038091A6
:101DA00037038093390385E080933B0380933A03A4
:101DB000E1E0F8E09FEF968385818F7D85833896FB
:101DC00088E0E932F807B9F7EEEDF7E021E038E016
:101DD00095E085818F7D8583968337962E173F0703
:101DE000C1F70C94CE0C809139038093370308958A
:101DF000E0917703ED3048F4F0E0EE0FFF1FE0597B
:101E0000FE4F0190F081E02D09940895109279031E
:101E100080937803809377038093760391E0909387
:101E200075031092740360937303109272031092FF
:101E300071036093700360936F0310926A031092B2
:101E40006B036093650360936603882349F080E227
:101E5000809364038BEF8093630381E00C94F80E0E
:101E600080E0F6CF70E0660F771FFB01E351FB4F78
:101E700025913491FB01E151FB4FA591B49151E0C3
:101E8000580F40E090E02A173B076CF5F901EB553D
:101E9000FD4FE4916E2F70E084E0759567958A950B
:101EA000E1F7862F411106C06F3091F09F5F591303
:101EB00005C00895960F9517C0F440E08E2F8F70DF
:101EC000411108C08F3069F09F5F591307C0089512
:101ED00041E0F4CF980F951740F440E02F5F3F4F5B
:101EE000D2CF41E0FBCF84E008958FE0089597FDC5
:101EF000079623E0959587952A95E1F7803391051C
:101F000078F470E093E0759567959A95E1F70E94F3
:101F1000320F93EF980F81E0923008F080E008953F
:101F200084E0F7CFFF920F931F93CF93DF939C0131
:101F300097FF02C0295F3F4F53E0359527955A958B
:101F4000E1F72033310508F05FC0F42EEC01062FD5
:101F500010E093E0159507959A95E1F7602F822F91
:101F60000E94320F982F8F3009F042C09E0183E00B
:101F7000359527958A95E1F770917903EEEEF2E0B9
:101F800060E033277617C9F1A191B19115968C9134
:101F9000159780FF2BC014964C91149750E0D3E016
:101FA00055954795DA95E1F704171507F9F4129658
:101FB0004D915C91DA01C3E0B595A795CA95E1F71B
:101FC000A217B30749F485FB882780F9DF91CF91E9
:101FD0001F910F91FF900895485F5F4F93E05595D3
:101FE00047959A95E1F74217530769F36F5FCACF98
:101FF000F11006C081E09D3049F780E0E7CF94E022
:1020000081E09B3018F3F9CF4111F9CF81E0DECFA9
:10201000EF92FF920F931F93CF93DF93662389F183
:10202000FC01E280F380FA013896EE15FF054CF1D1
:10203000F7013896E417F50724F1D22F8C01FC0143
:10204000C481C695C695C695CF5FD695D695D695CB
:10205000FFEFEF1AFF0ADC1760F040E06C2F660F0D
:10206000660F660FC7010E94920F81110AC0CF5FF1
:10207000F2CFF8018581806485830E94740DF80198
:102080008187DF91CF911F910F91FF90EF9008957D
:10209000FB0142815381358135FB662760F924813C
:1020A0000C940810E5E6F3E09081990F990F990FD1
:1020B0002281920F891B8A5F0895EAE6F3E09081FE
:1020C000990F990F990F891B9281891B0895CF92BF
:1020D000EF920F931F93CF93DF938C01FC018281CA
:1020E00093810E945D10D82FF80184810E945210C4
:1020F000C82FC12CEE24E39408E023E049EB56E01E
:10210000682F8D2F0E94B90661E06C0FCC24C39418
:1021100023E049EB56E084E08D0F0E94B906DF9181
:10212000CF911F910F91EF90CF900895AF92BF92F2
:10213000CF92EF920F931F93CF93DF935C01C62F43
:10214000FC0184810E945210182F0C2E000CDD0B14
:10215000F501828193818C0F9D1F0E945D10C12C1F
:10216000EE24E39408E023E04DE956E0612F0E945D
:10217000B906F50184818F5F0E945210182FF50176
:102180008281938104968C0F9D1F0E945D10CC2448
:10219000C39423E04DE956E0612F0E94B906DF9118
:1021A000CF911F910F91EF90CF90BF90AF90089576
:1021B000CF92EF920F931F93CF93DF93EC01623096
:1021C000710579F59E812091D1033091D20391114F
:1021D00030C0C9016AE570E00E942236892B11F4F3
:1021E00081E08E838A819B810E945D10182F8C81F3
:1021F0000E945210682F9D81892F80714E8196FF19
:1022000027C093E0499FA00111248823F1F045578E
:10221000594FC12CEE24E39408E023E0812F0E9463
:10222000B90680E0DF91CF911F910F91EF90CF9091
:10223000089523703327232BA9F6892F90E0019668
:1022400066E070E00E943636CCCF4758594FE1CF58
:10225000CC24C394811101C0C12C84E0489FA0010B
:1022600011244F59594FEE24E39408E024E0D6CFCF
:10227000CF92EF920F93CF93E82E80912F01909100
:1022800030010E945D10C82F80917A030E94521085
:10229000682FC09015014091250380912D019091E8
:1022A0002E01079789F48CE0489FA0011124435C1C
:1022B000594F6B5F08E02CE08C2F0E94B906CF913C
:1022C0000F91EF90CF90089582E1489FA0011124D3
:1022D000415D5A4F00E129E0EFCFAF92BF92CF921C
:1022E000DF92EF92FF920F931F93CF93DF937C01C6
:1022F000062F142F862F0E945210C82FC12ED12CCA
:102300005601AE0CBF1C8034B0F040E0602FC70116
:102310000E94920F81112FC040E0602FC501DF9114
:10232000CF911F910F91FF90EF90DF90CF90BF90D2
:10233000AF900C94920FC7010E945D10D82F87FDBB
:1023400013C0C5010E945D1087FDE6CF80E890E0D4
:102350008D1B9109D7FD93958C159D05C4F0D7FF72
:1023600018C01D0FD0E015C040E0602FC7010E94CB
:10237000920F882331F381E0DF91CF911F910F916C
:10238000FF90EF90DF90CF90BF90AF90089510E84E
:102390001D1B8C2F877031E001C0330F8A95EAF73F
:1023A0008C2F90E023E0959587952A95E1F79695F7
:1023B000982F8827979587958D0F911D84529C4F54
:1023C000FC012E2F281B211720F421912323C9F370
:1023D000D2CF80E0D1CF20912D0130912E0144E069
:1023E0002730310509F447E020912F013091300169
:1023F000682FC90102960C946D110F931F93CF9310
:10240000DF93062FD42FC22F0E945D10182F802F2C
:102410000E945210982F4D2F50E0410F511D17FD73
:102420005A9557FD0BC02C2F30E0280F311D87FD2A
:102430003A9537FD03C081E090340CF080E0DF91E5
:10244000CF911F910F910895EF92FF920F931F93D9
:10245000CF938C017B01C0E080917903C81788F489
:10246000EC2FF0E0EE0FFF1FE251FD4F6081718114
:10247000FB01858181FF03C0C801F7010995CF5F8A
:10248000EBCFCF911F910F91FF90EF9008958F9216
:102490009F92AF92BF92CF92DF92EF92FF920F93F3
:1024A0001F93CF93DF9300D000D000D01F92CDB701
:1024B000DEB75C016830710509F47EC069307105D2
:1024C00009F4D0C06230710531F4DC0115968C91AD
:1024D000159785FD14C080E027960FB6F894DEBFEF
:1024E0000FBECDBFDF91CF911F910F91FF90EF9065
:1024F000DF90CF90BF90AF909F908F90089586FD12
:1025000040C040912F015091300161E080912D0138
:1025100090912E0109970CF060E020917A03C5019B
:102520000E94081068E470E1C5010E94241287E04F
:10253000E2E4F1E0DE01119601900D928A95E1F757
:102540008090D1039090D20328E730E0E8E8E20FD2
:10255000C401B9010E942236892B61F481E090E028
:102560008C0F9D1F8E0F911DFC016081C5010E9483
:102570009610B1CF2F5F3F4F2F37310539F760E00D
:10258000F5CF19968C91843028F4B5016C5F7F4F9C
:102590000E942A0DF5016481685F40E08281938189
:1025A0000E94920F882359F3D50115968C911597A7
:1025B0008F7D15968C93E3CFFC01858185FD8BCFB4
:1025C0008091D1039091D20363E070E00E942236A3
:1025D000892B31F4808594819F5F94838F5F8087FE
:1025E000D50118968C911897853068F01996EC9162
:1025F000E43038F4F0E0EE0FFF1FEA5EFE4F8FEF9D
:10260000818381E069CF833020F460E0C5010E94BE
:102610009610912C812C25E0D22EF5011085848115
:102620008E5F811B0E945210F82ED50112968D915B
:102630009C91880D991D0E945D101D9DA001112483
:102640004056594FC12C92E0E92E08E025E06F2D4D
:102650000E94B906B4E08B0E911CE8E08E1691043E
:10266000E1F639CFDC0115968C9115978F7B159685
:102670008C93159718961C922ECFE0917903E15018
:10268000E0937903F0E0EE0FFF1FE251FD4F208150
:102690003181E82FF0E0EE0FFF1FE251FD4F318353
:1026A000208308950F931F93CF938C01C0E08091F6
:1026B0007903C817C0F4EC2FF0E0EE0FFF1FE251D2
:1026C000FD4F80819181DC01ED91FC910190F081C1
:1026D000E02DB8010995882321F08C2F0E943D132D
:1026E000C150CF5FE4CFCF911F910F910895CF9349
:1026F000C0E080917903C817C0F4EC2FF0E0EE0F32
:10270000FF1FE251FD4F0190F081E02D28E048E0ED
:102710006481828193810E94FD11811104C08C2FFC
:102720000E943D13C150CF5FE4CFCF910895FF9237
:102730000F931F93CF93DF93EC01F98018818F2DB6
:10274000811B1816C4F40A81602F0E940808800FAC
:102750008A831B8291E09C8388303CF188508A8375
:102760001F5F1883F11221C0DF91CF911F910F914C
:10277000FF900C9477138823B1F00A81602F619544
:1027800081950E940808081B802F0A839FEF9B8376
:102790001C82093F54F4885F8A8311501883F11218
:1027A00004C01B82E1CF1B821C82DF91CF911F915D
:1027B0000F91FF900895AC01909179039831B8F48E
:1027C000EEEEF2E020E0921739F06191719164171A
:1027D000750769F02F5FF7CFE92FF0E0EE0FFF1FCD
:1027E000E251FD4F518340839F5F90937903089599
:1027F000FC01611104C08FEF868387830895A62FA3
:10280000B0E023E0B595A7952A95E1F7677021E040
:1028100030E001C0220F6A95EAF78581AE0FBF1F35
:1028200016969C91169785FF1AC0292B16962C9305
:10283000A42FB0E093E0B595A7959A95E1F7AE0F78
:10284000BF1F477021E030E001C0220F4A95EAF730
:1028500016969C91922331F080628583089520958D
:102860002923E4CF8F7DF9CFCF93DF93C82FD62FC5
:10287000462F682F8AE199E00E94F8134D2F6C2FA4
:102880008DE099E00E94F8134D2F6C2F80E099E0C5
:102890000E94F8134D2F6C2F83EF98E00E94F813DD
:1028A0004D2F6C2F82EC98E00E94F8134D2F6C2F67
:1028B00084EB98E00E94F8134D2F6C2F86EA98E085
:1028C0000E94F8134D2F6C2F88E998E00E94F813AE
:1028D0004D2F6C2F8EE898E00E94F8134D2F6C2F2F
:1028E00084E898E00E94F8134D2F6C2F8AE798E057
:1028F0000E94F8134D2F6C2F80E798E00E94F81388
:102900004D2F6C2F86E698E00E94F8134D2F6C2F08
:1029100081E398E0DF91CF910C94F813CF9330913D
:102920006B0320916603381302C0261779F190914A
:102930007203981304C091E040917003461390E035
:10294000309372032093700380936B03609366034C
:10295000992329F080917503819580937503809167
:102960007703C0917503C80F6C2F0E943414C09375
:1029700077039091760381E09C1708F080E09C1724
:1029800010F4C0937603CF910C94F80ECF91089574
:10299000EF92FF920F931F93CF93DF93EC010111FE
:1029A00005C09D81892F807295FF1AC0122F042FB8
:1029B0007B01CE010E94DB13FB82EA820C83106252
:1029C0001D83E881F9810190F081E02D69E070E0DC
:1029D000CE01DF91CF911F910F91FF90EF9009945D
:1029E00090917903EEEEF2E0981779F02191319110
:1029F0002C173D0741F4DF91CF911F910F91FF906C
:102A0000EF900C943D138F5FEFCFDF91CF911F912B
:102A10000F91FF90EF9008950F93CF93C82F6BEE17
:102A200084E890E00E94AA0E0C2F20E043EC6DEEAB
:102A300070E08AE798E00E94C81420E048EC66EA5B
:102A400070E080E099E00E94C81422E94AEC6BED46
:102A500070E082EC98E00E94C81420E040EF68EB40
:102A600070E081E398E00E94C81420E444EF65ED33
:102A700070E084EB98E00E94C814CF910F91089504
:102A80000F93CF93C82F63EC86E690E00E94AA0EC6
:102A90000C2F20E040EF69E170E080E099E00E94B7
:102AA000C81422E042EC65E270E082EC98E00E94FB
:102AB000C81422E042ED66E470E084EB98E00E94E6
:102AC000C81422E04AEE60E570E086EA98E00E94D1
:102AD000C81422E14AED60E270E088E998E00E94C3
:102AE000C81420E040EF6EE670E08AE199E00E94B1
:102AF000C814CF910F9108950F93CF93C82F6BE80F
:102B00008EE690E00E94AA0E0C2F20E040EB62E2DD
:102B100070E08EE898E00E94C81420E040EB60E38B
:102B200070E084E898E00E94C81420E040EB60E781
:102B300070E080E099E00E94C81420E040E968E479
:102B400070E081E398E00E94C81420E040E96AE563
:102B500070E08DE099E00E94C814CF910F91089524
:102B60000F93CF93C82F63E584E890E00E94AA0EEC
:102B70000C2F20E040E761EC70E08EE898E00E94C6
:102B8000C81420E040E769EB70E084E898E00E9418
:102B9000C81420E040E56BEE70E080E099E00E9410
:102BA000C814CF910F9108950F93CF93082F20E071
:102BB00048E26EE070E08EE898E00E94C81420E0E1
:102BC00040E26CE670E084E898E00E94C81420E0DF
:102BD00048E061E570E08AE798E00E94C81420E0D0
:102BE00048E068E270E080E798E00E94C81420E0C6
:102BF0004AE061E170E086E698E00E94C8148091A6
:102C00003D0390913E03019781F420E048E268E0A3
:102C100070E080E099E00E94C81420E040E26DE39B
:102C200070E083EF98E00E94C814CF910F9108954F
:102C3000AF92BF92CF92DF92EF92FF920F931F93CA
:102C4000CF93DF938C01D62FD42EFC0184810E9478
:102C50005210D80EFFE3FD15E0F1F8018281938157
:102C60000E945D10C12C10E000E0082E000C990BB2
:102C70007C01F1E0EF1AF1086D2F70E05B01A80E06
:102C8000B91E6F5F7F4FEB01C80FD91F2FEFA21A3C
:102C9000B20AC701801B910B8038910538F46D2D65
:102CA0008E2D8C190E949806813001F1CE01800F83
:102CB000911F8038910538F46D2D8C2D8A0D0E945E
:102CC00098068130B1F00F5F1F4FC3940530110596
:102CD00001F790E080E0DF91CF911F910F91FF907D
:102CE000EF90DF90CF90BF90AF90089581E090E09B
:102CF000F2CF82E090E0EFCFEF92FF920F931F931D
:102D0000CF93DF93EC017B01042F122F0E94DB1382
:102D1000FB82EA820C831D83E881F9810190F081B6
:102D2000E02D69E070E0CE01DF91CF911F910F910E
:102D3000FF90EF9009940F93CF93C82F63E086EF35
:102D400090E00E94AA0E0C2F20E040E36CE970E0B6
:102D500080E099E00E94C81422E744E16FEC70E043
:102D600089E298E00E947C1620E146E167EA70E083
:102D70008CEE98E00E947C1620E046E064EB70E068
:102D800085EE98E00E947C1620E149E068E870E05A
:102D90008EED98E00E947C1620E54BE268E870E03A
:102DA00087ED98E00E947C1620E440E269E870E03C
:102DB00080ED98E00E947C1620E048E168EB70E02E
:102DC00081E398E00E94C814CF910F9108950F936A
:102DD000CF93082F20E048E060E671E080E099E0C2
:102DE0000E94C81420E147E16FE071E08CEE98E0AA
:102DF0000E947C1620E14FE167E071E085EE98E0EB
:102E00000E947C1620E440E26AE671E08EED98E0D4
:102E10000E947C1620E542E066E171E087ED98E0D3
:102E20000E947C1622E942E166E571E082EC98E0BE
:102E30000E94C81420E544E36EE471E084EB98E05E
:102E40000E94C8148FE18093650820E047E261E0AA
:102E500071E087E598E00E947C1680E28093560836
:102E600020E148E064E771E088E498E0CF910F91B9
:102E70000C947C160F93CF93C82F6BE68BE491E0F4
:102E80000E94AA0E0C2F20E048E468E371E08AE774
:102E900098E00E94C81420E040E76DE071E080E017
:102EA00099E00E94C81420E14DE667E071E08CEEE5
:102EB00098E00E947C1620E14FE56FE071E085EE1E
:102EC00098E00E947C1620E547E66CE071E08EED0C
:102ED00098E00E947C1620E54AE66FE671E087EDF7
:102EE00098E00E947C1620E040E760E271E081E318
:102EF00098E00E94C81422E04AE465E171E082ECA7
:102F000098E00E94C81422E14AE567E571E084EB8D
:102F100098E00E94C81422E04AE469E471E086EA7D
:102F200098E00E94C81420E040E76BE671E08AE177
:102F300099E00E94C81420E444E765E171E088E963
:102F400098E00E94C814CF910F9108950F93CF93EA
:102F5000C82F6BEA87E391E00E94AA0E0C2F20E0B5
:102F60004AE868E471E08AE798E00E94C81420E02B
:102F700043E861E171E080E798E00E94C81422E62E
:102F800044E962E271E089E298E00E947C1620E167
:102F90004DE967E071E08CEE98E00E947C1620E538
:102FA00048E860E471E085EE98E00E947C1620E538
:102FB00042E86EE271E08EED98E00E947C1620E51A
:102FC0004BE864E571E087ED98E00E947C1620E50F
:102FD0004AE867E671E080ED98E00E947C1620E404
:102FE00044EA67E571E082EC98E00E94C81420E5AD
:102FF00044EA61E471E084EB98E00E94C81487E43D
:103000008093650820E147E963E771E087E598E090
:10301000CF910F910C947C160F93CF93C82F6BEC2C
:1030200080E091E00E94AA0E0C2F20E048EC66E2BE
:1030300071E080E099E00E94C81420E048ED6BE662
:1030400071E08DE099E00E94C81488E680936508DD
:1030500020E148EE6BE671E087E598E00E947C167F
:1030600080E38093560820E04FED68E371E088E448
:1030700098E00E947C1687E58093470820E140ECA9
:1030800063E771E089E398E0CF910F910C947C168F
:103090000F93CF93C82F63E88CEE90E00E94AA0EA6
:1030A0000C2F20E040EA6EEB70E080E099E00E9497
:1030B000C81420E145EA68ED70E08CEE98E00E94CB
:1030C0007C1620E149EA68ED70E085EE98E00E9408
:1030D0007C1620E04FE964EC70E08EED98E00E94F1
:1030E0007C1620E049E964EC70E087ED98E00E94EE
:1030F0007C1620E448E86FEC70E080ED98E00E94D8
:103100007C1622E842E861EA70E082EC98E00E94D6
:10311000C814CF910F91089563E484E390E00E9476
:10312000AA0E22E344E46BE570E089E298E00C9497
:103130007C1690914C039823981306C020914B0362
:10314000292381E0291301C080E0089588E00E94CE
:103150009918882389F090913A03191664F49150D4
:1031600028E09202F0011124EF5FF74F258125FF3F
:1031700003C09150A8F780E00895BF92CF92DF92EC
:10318000EF92FF920F931F93CF93DF9311E06A307A
:1031900008F012E0C12FCC0FCC0FC10FC80FDC2EEE
:1031A000F12C8AE0B82E8BEFD80E862F6B2D0E9463
:1031B0001636D82F84E0989FA00111244A51584F09
:1031C000C12CEE24E39408E024E060E08D2D0E9401
:1031D000B9066D2FF3941F11E6CF8C2FDF91CF919D
:1031E0001F910F91FF90EF90DF90CF90BF900895C7
:1031F00060E080E00E94060F88EC90E09093300140
:1032000080932F0110923E0310923D03089525E014
:10321000289FF001299FF00D1124EF5BFC4F1082D5
:1032200041835283638374830895CF93C0913A039B
:10323000C1502C2F0C2E000C330BC90143E0880F1A
:10324000991F4A95E1F78F5F974F27FD3CC0F90121
:10325000DC0121503109089715964C91159745FDD1
:10326000F4CF80912F0190913001209115012223FC
:1032700071F19C012150310980917A038B5F93E0B9
:10328000EE0FFF1F9A95E1F7EF5FF74F338322832D
:1032900084831682178215968C91159780621596F5
:1032A0008C931597CD010E94DB13C0933A03409194
:1032B000490150914A0160914B0170914C0181E0AC
:1032C00090E00E94071910922303CF910895209156
:1032D0002D0130912E012730310539F42CE0280FD3
:1032E000392F311D29503109C7CF29E0F8CF29E006
:1032F00030E030932E0120932D012CE02093250304
:103300002FEF2093240321E0409708F020E08091E4
:10331000150147EF821349E060917A0380912F01F4
:10332000909130010E94570D8093220380913C03BD
:1033300018161CF4815080933C0340914D0150912C
:103340004E0160914F017091500190E080E00C942B
:103350000719CF93DF93C0912D01D0912E01C93071
:10336000D105ECF580E00E943811009721F0DF9143
:10337000CF910C947719239791F580917A03845F0C
:103380000E945210C82F80912F01909130010E940D
:103390005D10C03420F52C2F277091E001C0990FEB
:1033A0002A95EAF7EC2FF0E023E0F595E7952A95CA
:1033B000E1F79F013695322F222737952795E2E0D6
:1033C000E80FE20FF32FF11DE452FC4F9F012C5F39
:1033D0003F4F8191892331F4E217F307D1F7DF9151
:1033E000CF91089580E290E0C2CFCF92EF920F93F9
:1033F0001F93CF938C01E62EFC01828193810E9462
:103400005D10C82FF80184810E945210682FF801C6
:10341000858184FBCC24C0F8408587FF11C0FCE087
:103420004F9FA0011124485D5D4F00E126E08C2FE5
:103430000E94B906CF911F910F91EF90CF90089500
:1034400086FF09C088E0489FA001112440525E4FCA
:1034500008E028E0ECCFE2E14E9FA00111244A579A
:103460005E4F00E129E0E3CFEF92FF920F931F93AD
:10347000CF93DF938C01F62EFC018581228133816D
:10348000E901219784FD05C0C485C20FD32FD11D4A
:10349000219686FBEE24E0F881E0E82641E0F80181
:1034A0006481CE010E94920F882351F0FF24F3948F
:1034B0008F2DDF91CF911F910F91FF90EF90089585
:1034C000F801858186FF13C0FF2091F388E090E02A
:1034D00001C0880FEA94EAF7F8016481680F40E0C0
:1034E000CE010E94920F91E0F82EF926E1CF64817F
:1034F000685F40E0CE010E94920F882329F3D6CF67
:10350000CF93DF93EC0180912F01909130010496CD
:103510004A815B81BA01615071092D81322F30716E
:10352000495F5F4F4817590754F4332321F180E175
:1035300028272D8381E08A8784E0888716C0861734
:10354000970734F08A85823091F4DF91CF91089506
:10355000332369F360E0CE010E94341A8111F2CF67
:103560008A85882391F31A8618861986EECF82E021
:103570008A8785E0E2CF8617970764F7D8CFEF9266
:10358000FF920F931F93CF93DF93EC016730710588
:1035900009F438C148F463307105B9F0653071053C
:1035A00009F4F8C010E0EEC06830710509F4FCC001
:1035B00069307105B9F78D81982F907487FD9EC190
:1035C00088E091119CC189E09AC10D8105FFEACF85
:1035D000EA80FB802D854C856C81C7010E94FD111E
:1035E000182F882309F4CCC0902F98609D832985DB
:1035F0002F5F29878A85823009F441C0D8F5882356
:1036000009F455C0813009F48FC060E0CE010E94FA
:10361000F519AC01892B31F29C85969521E030E0BB
:1036200002C0220F331F9A95E2F791E04217530729
:103630000CF090E08D818295817049E0981301C073
:1036400047EF8A85833051F4EB85E43038F4F0E0BD
:10365000EE0FFF1FEA5EFE4F8FEF81836C818A8140
:103660009B810E94570D8B8784E08A878D818F7D97
:103670008D8398CF833009F46AC0853031F6388560
:10368000E32FF0E0E959FE4F40812413BECF1986A5
:10369000383009F059C025E0288706FF04C0823081
:1036A00009F04AC02A878D8187FFAFCF1BC083E016
:1036B00097FD08C081E006FD05C0E885F0E0E4590B
:1036C000FE4F80812813A1CF19868885833071F43D
:1036D000188604FF0EC081E0E81AF108FB82EA8236
:1036E00097FF0BC0CE010E94801A8FCF8F5F888713
:1036F000F0CFEFEFEE1AFE0AF1CF61E0CE010E94AB
:10370000341A882309F481CF8D8186FF06C082E0B8
:103710008A8785E08887198678CF90E189278D830D
:1037200081E08A8784E0F6CF85E097FF8EE028135A
:103730006CCF1A861886EFCF80E198279D8381E0B1
:103740008A8784E08887AFCF3F5F3887ACCF8B858F
:10375000843090F4BE016C5F7F4F0E942A0D81502F
:10376000823008F052CF8A819B812D8124FF06C0D0
:1037700001979B838A8349CF80E0F1CF0196F9CFEF
:10378000077F0D83812FDF91CF911F910F91FF90C4
:10379000EF9008958D818872883209F003CF61E03F
:1037A000CE010E94F519FECE8D8185FDFBCE62E033
:1037B000CE010E94F5198B85843048F422EEAE01CB
:1037C0004C5F5F4FBE016E5F7F4F0E94DA0C2D850C
:1037D0004C856C818A819B810E94FD118111E2CE12
:1037E000EB85E43050F485E0E89FF0011124E050CF
:1037F000FF4F88E79CEE918380838D818F7D8D8341
:1038000011E0C0CF8D81982F9872983209F0CACEFE
:103810006C8170E086FF30C06C5F7F4FF62E4C8568
:1038200042508A819B8101960E946D11182F8A85D2
:10383000111152C0833009F044C0EB8500E0E43040
:10384000F0F4F0E0EE0FFF1FEA5EFE4FE181F0E0E2
:10385000E657FE4F0081E02EE1E0EE1580F44C8546
:1038600042508A819B816F2D6E0D01960E946D11D1
:1038700081110150EA94F0CF625F7F4FCFCF8B85EB
:10388000843008F08FCE002309F48CCE90E0880FAE
:10389000991FFC01EA5EFE4F4181202F30E0E42FAA
:1038A000F0E0E657FE4F6081062E000C770B2617DE
:1038B000370714F44F5FF3CF8A5E9E4FFC014183BC
:1038C00061CF83E08A870E94740D8B878D8187FF8B
:1038D00069CE89E0888756CF833009F063CE1A8697
:1038E00018861986EB85E43008F05CCEF0E0EE0F28
:1038F000FF1FEA5EFE4F8FEF818354CE86E08C87F8
:1039000084E0911101C08CE08D871A861886198693
:1039100049CECF92EF920F931F93CF93DF93EC0199
:103920008C810E945210182F8A819B810E945D1009
:103930004E8198E04902A00111244D5D5E4FC12CDB
:10394000EE24E39408E028E0612F0E94B906DF919D
:10395000CF911F910F91EF90CF900895CF92EF925A
:103960000F931F93CF93DF93EC016115710559F00D
:103970006830710529F180E0DF91CF911F910F919F
:10398000EF90CF9008952E812630ACF38091D10333
:103990009091D20366E070E00E942236892B11F4E8
:1039A0002F5F2E838E818B3039F48FEF8E838D8144
:1039B0008F7D8D8381E0E0CFCE010E94891CDBCF1B
:1039C0002E812F3FB9F32630B4F68091D103909128
:1039D000D20364E170E00E942236892B11F42F5F3C
:1039E0002E838091D1039091D20325E030E0B9017C
:1039F0000E942236892B49F48F81082E000C990BE6
:103A00000196B9010E9436368F838E8186300CF084
:103A1000B2CFCE010E94891C8C810E945210182FB7
:103A20008E81082E000C990B959587952A813B81F4
:103A3000820F931F0E945D104F8195E04902A00103
:103A400011244056594FC12C32E0E32E08E025E006
:103A5000612F0E94B9068FCFE42FF0E033E0F59597
:103A6000E7953A95E1F7F695FE2FEE27F795E7955E
:103A7000E60FF11DE80FF91F8189942F977041E03F
:103A800050E001C0440F9A95EAF7222319F0482B21
:103A9000418B089540954823FBCF0F931F93CF93FD
:103AA000DF93C82F162F022FD82FD40FD13868F4E8
:103AB000603458F4CD1748F4202F412F6C2F8BEC35
:103AC00093E00E942C1DCF5FF5CFDF91CF911F9126
:103AD0000F910895FF920F931F93CF93DF93182FA9
:103AE000C62FF42ED62FD20FCD1740F4202F4F2DF6
:103AF0006C2F812F0E944D1DCF5FF6CFDF91CF91AC
:103B00001F910F91FF9008950F931F93CF93DF9311
:103B100080912D0190912E019C012250310922307B
:103B2000310508F0CAC0309120033F5F3093200375
:103B300020911F03422F50E0FA01EA56FE4F6081A8
:103B4000062E000C770B36171706E4F010922003B0
:103B500046575E4FFA01308140917A03029709F08F
:103B60009EC0431B40937A0381E0820F80931F0322
:103B70008C3040F083E090E090932E0180932D01F3
:103B800020931F0380911E038F5F80931E039091EB
:103B900014018917D8F010921E0380914C0385FF01
:103BA00086C081E00E94450C80911401813071F043
:103BB00080912F019091300120911501222309F469
:103BC0007AC001979093300180932F018091ED028C
:103BD00081110E94820C90E080E00E94521381E0EB
:103BE00090E00E94521382E090E00E9452130E94E3
:103BF000A91983E090E00E94521384E090E00E94B3
:103C0000521385E090E00E9452130E94A9198091FE
:103C10007A030E945210845F20912D0130912E0171
:103C20002330310541F4E0911F03F0E0E657FE4FE9
:103C300090819095890FD82F80340CF0DFE34D2FC1
:103C40006CE080E00E948C0D86E090E00E945213B0
:103C500000912D0110912E01093011050CF02DC39A
:103C6000C0917A030230110509F0A1C28C2F0E9485
:103C7000EB11882309F4D1C280917A038F5F80937E
:103C80007A03CF5F8C2F0E94EB11CF5F882309F45A
:103C9000C2C280917A038F5F80937A03F3CF340F8F
:103CA00030937A03243008F46DCF215069CF86FF1A
:103CB0007BCF80E077CF019685CF8430910509F0E6
:103CC00088C08091D1039091D20363E070E00E949C
:103CD0002236892B39F48091250390912403890F92
:103CE0008093250380912503863008F46CC085E01D
:103CF000809325038FEF80932403C0913B03C15031
:103D00006C2F0C2E000C770BF7E0CF02C0011124B2
:103D10008252984F67FD5FCF9B01FC015581615036
:103D20007109079755FDF6CF7091150160917A03DF
:103D3000685F80912F0190913001711101C0099647
:103D4000452F40624583772399F1452F4063458392
:103D500048E056FF43E057E0529FD001539FB00D1B
:103D60001124A252B84F841B910913969C938E93F1
:103D7000129787E0829FD001839FB00D1124A25239
:103D8000B84F14966C93149716961C92CF010E940C
:103D9000DB13C0933B03409151015091520160915C
:103DA00053017091540181E090E00E94071913CFF4
:103DB0004F7E458347E0429FD001439FB00D1124C1
:103DC000A252B84FD2CF843008F005CF0E94CE0C5B
:103DD00002CF8530910509F043C080912303811102
:103DE00004C00E94A618809323038091D103909170
:103DF000D20363E070E00E942236892B39F480916F
:103E0000250390912403890F809325038091250336
:103E1000883008F4E0CE8091230381110E941519A7
:103E200080914C0384FF19C087E090E090932E01AD
:103E300080932D011092250381E0809324038091CB
:103E400015018111C8CE80912F0190913001039707
:103E50009093300180932F01BECE0E94910CBBCE77
:103E600086309105B9F48091D1039091D20363E03B
:103E700070E00E942236892B39F4809125039091BD
:103E80002403890F8093250380912503863008F051
:103E9000A2CE9CCF8730910509F041C00E94A618A0
:103EA00081110E94151980914C0384FD04C09091EA
:103EB0002103992391F285FF1DC081E080931501B4
:103EC0008091D1039091D20363E070E00E9422368A
:103ED000892B09F080CE80912F01909130010197BC
:103EE0009093300180932F0141E062E080E00E94D6
:103EF000650C71CE86FF6FCE109215018091D103B3
:103F00009091D20363E070E00E942236892B09F081
:103F100062CE80912F01909130010196E1CF8830DF
:103F2000910591F58091D1039091D20363E070E007
:103F30000E942236892B09F04ECE80914C0387FFD8
:103F400009C080917A03815080937A0340E06BE04E
:103F500089E0CDCF84FF04C080917A038F5FF4CFD6
:103F600085FF0AC080912F019091300101979093B5
:103F7000300180932F01EACF86FF2DCE80912F0153
:103F8000909130010196F3CF8930910509F048C036
:103F90008091D1039091D20383709927892B81F46A
:103FA00020912503822F8D7F8C3029F4909124035A
:103FB00091959093240380912403820F809325038D
:103FC000C0912203C43040F422EE4AE753E06FE28E
:103FD00071E08C2F0E94DA0C2CE049E060917A03AA
:103FE00080912F01909130010E94FD118111F3CD3C
:103FF000C43050F425E0C29FF0011124E050FF4F7F
:1040000088E79CEE918380838AE090E090932E0174
:1040100080932D0185E08093640380936303DBCD5F
:1040200009970CF0D8CD84E00E9499188823E9F113
:1040300082E090E090932E0180932D0188E08093A0
:1040400025031092200310921F0310921E0340912B
:10405000550150915601609157017091580181E0CE
:1040600090E00E94071988E00E949918882309F4BB
:10407000B2CD80913B0318160CF0ADCD815097E086
:104080008902F0011124E252F84F258125FD8BC0F1
:1040900084E08093250381E08093240384E090E012
:1040A00090932E0180932D0196CD80914C0384FF37
:1040B0001DC08091ED02811104C08091EC02882323
:1040C00029F080E10E94991881110DC085E090E0EF
:1040D00090932E0180932D0186E08093250381E04B
:1040E00080932403C0CF0E94820CBDCF87FF04C001
:1040F0009091ED029111F7CF85FF2DC081E0809363
:10410000150183E08093140180E20E9499188823AE
:1041100041F01092250381E090E090932E0180936E
:104120002D018091D1039091D20363E070E00E9451
:104130002236892B09F097CF80912F019091300181
:1041400001979093300180932F0141E063E080E07C
:104150000E94650C88CF86FF23C01092150183E072
:104160008093140180E40E949918882341F01092F2
:10417000250381E090E090932E0180932D018091A2
:10418000D1039091D20363E070E00E942236892B24
:1041900009F069CF80912F01909130010196D1CF24
:1041A0000E94CE0C60CF815008F06ACF14CD03304E
:1041B000110539F58CE08C0F0E94EB11882369F111
:1041C00080917A03815080937A03C55F8C2F0E947F
:1041D000EB11C150882331F080917A038150809394
:1041E0007A03F4CF0E94CE0C4091590150915A01AC
:1041F00060915B0170915C0181E090E00E94071981
:104200000CC08DE08C0F0E94EB118111C3C0809116
:10421000ED02811102C00E94AB0C83E00E943811B4
:104220000097B1F031E030931401209115018770AF
:104230009927892B09F0232780912F019091300134
:10424000222309F4B9C001969093300180932F0185
:1042500080912D0190912E01079789F480912F0173
:104260009091300120911501211101C003966091B8
:104270007A036E5F49E00E946D11809321030091E3
:104280002F01109130010C5F1F4F60917A036B5F1B
:10429000C8010E94770F811106C060917A03645FA4
:1042A000C8010E94770F8093ED0260917A03635FEB
:1042B000C8010E94770F8093EC024D2F6CE08CE0D8
:1042C0000E948C0D87E090E00E94521388E090E0FD
:1042D0000E9452134D2F6DE08DE00E948C0DC09115
:1042E0002D01D0912E0182E0C930D10509F081E085
:1042F0000E943811C930D105B4F460916503687F1C
:1043000080917A0390E048E0649F90011124AC0111
:10431000465F5F4F241735070CF450C068508091FA
:104320006B030E948E148AE693E00E94971385E641
:1043300093E00E949713C09164031C1634F500E0CB
:104340002C2F40E860E080E00E946A1D60E46C1B56
:104350002C2F40E880E00E946A1D80916303C80F03
:10436000C0936403C0328CF08091F80885FF9DC033
:1043700080913C0381115BC082E090E090933E030A
:1043800080933D038BEF80936303DF91CF911F9167
:104390000F9108950830110509F03FCF80914C032B
:1043A00084FD07C08091ED02811137CF0E94CE0CB1
:1043B00034CF8091EC02F8CF019746CFC730D105BA
:1043C00041F40796265C3F4F8217930724F0685FFD
:1043D000A6CF0296F7CF80916A03807F20912F01AC
:1043E00030913001B901C730D10569F4685F7F4F62
:1043F00098E0899FA0011124461757073CF060916F
:10440000660380518ECF6A5F7F4FF2CF279761F4AA
:104410002C5F3F4F40585F4F241735070CF483CF74
:1044200060916603805F7DCF2E5F3F4FF3CF809119
:104430007803809377038093760381E080937503FC
:10444000809171038093720380916F038093700356
:104450008091740380936A0380936B03809173034C
:104460008093650380936603109279038FEF8093A6
:1044700017018093190180931B0180931D0188E728
:104480009CEE90930101809300019093060180932C
:10449000050190930B0180930A0190931001809382
:1044A0000F0181E00E94F80E6DCF83E090E09093C1
:1044B0003E0380933D0369CF9F92AF92BF92CF920C
:1044C000DF92EF92FF920F931F93CF93DF936C01D4
:1044D000E62E942E205285E0289FE0011124C15839
:1044E000D74F10E080E0153011F0FE018491F12CDF
:1044F000A82EB12C80FF07C0202F4F2D490D6E2D07
:10450000C6010E942C1DC50195958795F394F8E08E
:10451000FF12EECFE39421961F5F163019F7DF915B
:10452000CF911F910F91FF90EF90DF90CF90BF90B0
:10453000AF909F900895DF92EF92FF920F931F9399
:10454000CF93DF93282FC82F10E03AE01F5F8C2F06
:10455000632F0E941636C82F8111F8CF912F990F23
:10456000910F990F8091DC07980FDAEFD90FE09047
:10457000DD079093DC078AE0D82EC11791F0822FD7
:104580006D2D0E941636F82E20E3290F01E04E2DE6
:104590006D2F8BEC93E00E945C222F2DD650CF5FC5
:1045A000ECCFDF91CF911F910F91FF90EF90DF90B3
:1045B00008950F93CF93DF93262FFC01EE5EFB4F00
:1045C000EC01CF5EDB4F01E0408168810E945C22FC
:1045D00088818A5F8883DF91CF910F9108958F92B0
:1045E0009F92AF92BF92CF92DF92EF92FF920F9382
:1045F0001F93CF93DF93EC016230710509F458C02B
:1046000090F46130710509F45AC080E0DF91CF91D8
:104610001F910F91FF90EF90DF90CF90BF90AF90E0
:104620009F908F9008956330710509F456C06830EB
:10463000710559F7AA80BB80C5010E945D10082F43
:10464000FC808F2D0E945210182F48858D8185FF88
:1046500096C04F3F09F05BC08091D1039091D20387
:1046600066E970E00E942236892B79F689858130CF
:1046700009F047C085E089878A0D9B2D911D43E095
:10468000959587954A95E1F7082FF694F694F69458
:104690001F2D1770D1F16F2D802F0E94320F8F3098
:1046A00091F1110F110F110F125F11501887ADCF3B
:1046B0008D8185FFAACFCE010E946710A6CF1D81F4
:1046C00015FFA3CF40E066E00E941816892B09F47D
:1046D0009CCF1F7D1D83188698CF1D8115FF95CF18
:1046E0008A819B8103960E945D10082F8C810E9415
:1046F0005210682F802F0E949806813009F085CFD4
:10470000E8CF81E0B8CFFA94C3CF1EE0CECF4F5FA1
:10471000488726E0210F022E000C330B642F70E037
:10472000C9010496861797071CF48FEF88876DCF11
:104730008985F02EF80E62177307ACF025E0842F00
:10474000622F0E941636929FA00111244056594FA5
:104750006CEF610FC12C32E0E32E08E08EEF8F0D7D
:104760000E94B90652CFF7FC50CF403408F04DCF2D
:1047700021E06F2D8BEC93E00E942C1D46CF8091A1
:10478000D1039091D20363E070E00E942236892B1E
:1047900011F44F5F48878885853088F5823018F49A
:1047A000CE010E946710FF24FA94F00EB12CA12CC8
:1047B00095E0892E912C25E0D22E1F5F88858A0DE9
:1047C0009B2D911DB4010E943636D89EA001D99E22
:1047D000500D11244056594FC12C82E0E82E08E0BC
:1047E00025E0612F8F2D0E94B9068FEFA81AB80A15
:1047F00083E0F80E83E0A816B10401F706CF81E04C
:1048000005CF089590E080E00895AF92BF92CF92D7
:10481000EF920F93CF93DF935C01FC018281938130
:104820000E945D10C82FF50184810E945210D82F7C
:10483000C12CEE24E39400E126E04DEF50E0682F18
:104840008C2F0E94B906CC24C39426E04DEF50E093
:104850006D2F86E08C0F0E94B906F50125815FEF70
:1048600024FF51E08091D1039091D2038770992762
:10487000892B51F426FD08C0F501268130E02F5F19
:104880003F4F237033272683F5014681513041F095
:1048900064E070E0CB01841B91090E943636482FFA
:1048A000442329F0CC24C39480E0433011F4C12C7C
:1048B00082E0042E000C550B55954795440F551F6B
:1048C000440F551F4B505F4F62E06D0F8C0F9C2DB6
:1048D000990F9C0D990FE12C08E024E0890F0E94AC
:1048E000B906DF91CF910F91EF90CF90BF90AF902D
:1048F0000895CF92DF92FF920F931F93CF93DF9390
:10490000EC011D81012F0074DF806630710509F410
:10491000B6C080F46115710509F4AFC0613071054E
:1049200089F080E0DF91CF911F910F91FF90DF9090
:10493000CF90089567307105C1F06930710589F72E
:1049400084E03CC0002369F384E0D812EACF48E059
:104950006CE0CE010E941816009719F31F7A029797
:1049600011F01D83DECF1061FCCFFF24F39414FF00
:1049700002C0FF24FA946C81645F8A819B8144E0C9
:1049800004960E946D1181111BC084E0D81669F055
:104990008F81843030F6AE014C5F5F4FBE016E5F99
:1049A0007F4F20E00E94DA0CBCCF4F2D440F4F0DFB
:1049B000440F6C818A819B810E94570D8F83B1CFF8
:1049C00084E0D81679F0EF81E43008F0B9CF85E0C3
:1049D000E89FF0011124E050FF4F88E79CEE91839F
:1049E0008083AECF8091D1039091D20363E070E0D9
:1049F0000E942236892B09F094CF011192CFCF2C3F
:104A00000F2C000CDD080A811B810C0D1D1D1B8362
:104A10000A8381E0F81202C0045F1F4F41E06C81FD
:104A2000C8010E94920F8823D1F08A819B818C1942
:104A30009D099B838A836C81605F40E00E94920F96
:104A40008823B1F06C81605F8A819B8140E0089689
:104A50000E94920F882361F08D8180640CC06C816C
:104A6000685F40E0C8010E94920F8111DECF59CFEC
:104A70008D8190E189278D8354CF011152CFCE01D2
:104A80000E9405244ECFCF92EF920F931F93CF93A6
:104A9000DF9368307105D9F5EC018E81843048F4DC
:104AA00022EEAE014C5F5F4FBE016E5F7F4F0E94F2
:104AB000DA0C8A819B810E945D10182F8C810E94E4
:104AC0005210CD80C4FACC24C0F892E0E92E08E060
:104AD00025E040EF50E0682F812F0E94B90628E0C2
:104AE00045E06C818A819B810E94FD1181110FC07C
:104AF000EE81E43050F485E0E89FF0011124E050AD
:104B0000FF4F88E79CEE9183808381E001C080E0C5
:104B1000DF91CF911F910F91EF90CF9008950F9358
:104B20001F93CF93DF93FC01EA013581828193814A
:104B3000A685B0E0432F40718C0134FF45C00A1BAD
:104B40001B0BDC0118976623D1F154815A5F25179E
:104B5000B0F530E0245F3F4F5217130609F07CF5A3
:104B60009E01285F3F4F201731074CF1C817D90726
:104B700034F5BF016A5F7F4F2385922F9062938740
:104B8000442341F1822F8063838798E026FF93E0DE
:104B9000A91BB109B187A087EF0152871486CB0109
:104BA0000E94DB1340915D0150915E0160915F01B5
:104BB0007091600190E080E00E9407191D86DF91EE
:104BC000CF911F910F9108950F5F1F4F8A0F9B1F69
:104BD000D801B9CF9F7E9387DDCFDC01FB011D9605
:104BE0008C911D978F3F51F442815381958195FBA4
:104BF000662760F92481CD010C948F250895CF920A
:104C0000EF920F931F93CF93DF93EC016630710502
:104C100079F16930710509F441C062307105C9F458
:104C20008D858F3FF1F440912F015091300161E06B
:104C300080912D0190912E0109970CF060E0209158
:104C40007A03CE010E948F256DEE75E2CE010E949F
:104C5000241280E0DF91CF911F910F91EF90CF90C0
:104C600008958F5F843B10F48D87F3CF8FEFFCCFD7
:104C70008C810E945210182F8A819B810E945D10A6
:104C8000CD80C4FACC24C0F8EE24E39408E024E0FC
:104C90004CEE50E0612F0E94B906DBCF8FEF8D877D
:104CA0008B858F7D8B8785E08C87D3CFBF92CF920A
:104CB000DF92EF92FF920F931F93CF93DF937C01CC
:104CC000B62EFC01D6818581C3E086FDC8E084FD57
:104CD0002AC0D150DC0FDD24D394C0E0F70102815B
:104CE0001381C8010E945D10C82EF70184810E94C3
:104CF0005210F82EDC17F1F06F2D8C2D8C0F0E94C6
:104D000098068B1115C0C8018C0F911DC7FD9A958F
:104D10000297DF91CF911F910F91FF90EF90DF905D
:104D2000CF90BF900895C150D195DD24DA94D6CFAD
:104D3000CD0DE0CF80E69AEEECCFFF920F931F935C
:104D4000CF93DF93FC01F62E02811381858196813A
:104D500084FF02C0091B1109C8E086FFC3E0C90F28
:104D600084810E945210D82FC8010E945D102F2DFF
:104D70004C2F6D2FDF91CF911F910F91FF900C94CD
:104D80004D1DCF92DF92EF92FF920F931F93CF931F
:104D9000DF93EC016430710581F06730710571F1CA
:104DA0006230710519F48D8185FD02C010E01CC0D0
:104DB00061E0CE010E949D26F9CF0D8105FFF6CF5F
:104DC00060E00E94562611E080362AEE920709F430
:104DD00010E080369A4E21F00F7D0D8385E08E83A2
:104DE00060E0CE010E949D26812FDF91CF911F911F
:104DF0000F91FF90EF90DF90CF9008950D811E816D
:104E000005FF44C061E00E9456266C01412F50E02E
:104E10008A819B8104FF2CC0841B950B9B838A8312
:104E2000802F8074F82E82E006FF84E08E838A81D2
:104E30009B810E945D10182F08E0F11001C003E073
:104E40008C810E94521021E0402F682F812F0E94F8
:104E50004D1D90E6C9169AEED90679F08D818F7DA9
:104E60008D83DB82CA828C8184508C831E829ECF8C
:104E7000480F591F5B834A83D3CF17FF97CF8D818C
:104E80008F7D8D8385E08E8311E0AECF1530E0F706
:104E90008C810E945210D82E8A819B810E945D10C5
:104EA00004FBCC24C0F825E0129FA0011124405639
:104EB000594F92E0E92E08E025E06D2D0E94B906D9
:104EC0008091D1039091D20363E070E00E9422367A
:104ED000892B09F06BCF8E818F5F8E8367CFCF9246
:104EE000DF92EF92FF92CF93E82FF0E0E651FF4F71
:104EF000C491E62FF0E0EE0FFF1FEC5BFF4FC59073
:104F0000D490F12CE12C60E074E284EF90E0A701F2
:104F100096010E94B335215031094109510991E0B0
:104F20002115310581E0480751056CF060E970ED0D
:104F300083E090E0A70196010E94B335215031092A
:104F40004109510993E0C13041F0C330B1F0CF9134
:104F5000FF90EF90DF90CF90089580918100887F3F
:104F6000892B809381003093890020938800809161
:104F70006F00826080936F00EACF80919100887FFC
:104F8000892B809391003093990020939800809111
:104F90007100826080937100DACFE82FF0E0E65173
:104FA000FF4FE491E13019F0E33089F008958091EA
:104FB0006F008D7F80936F008091E902E091EA029B
:104FC000F091EB02908180958923808308958091F0
:104FD000E602E091E702F091E802F4CFCF93DF938D
:104FE000C82FE62FF0E0E651FF4FD49161E00E9418
:104FF0008A0AD13029F0D33049F1DF91CF91089559
:1050000010928000109281008091810088608093CE
:105010008100809181008160809381008C2F90E0DD
:10502000FC01E85DF84FE491F0E0EE0FFF1FE65E53
:10503000F84F259134913093EB022093EA0285508A
:10504000994FFC0184918093E902D7CF1092900090
:1050500010929100809191008860809391008091DE
:1050600091008160809391008C2F90E0FC01E85DBD
:10507000F84FE491F0E0EE0FFF1FE65EF84F259148
:1050800034913093E8022093E7028550994FFC0158
:1050900084918093E6026CE380E00E946F2780E0B9
:1050A000DF91CF910C94CD274F925F926F927F92B8
:1050B000AF92BF92CF92DF92EF92FF920F931F9326
:1050C000CF93DF93EC01B62EA42E122F3985809159
:1050D000D1039091D2033F3F09F076C0688570E01C
:1050E0000E942236892B09F050C01986402E002ECE
:1050F000000C550866087708CE2CEE0CDD08EE088B
:10510000FF08C418D508E608F7080E945B35A70118
:1051100096010E94B335460E571E681E791E4C86B6
:10512000041142C00E945B35212F110F330B440B39
:10513000550B2E5F3F4F4F4F5F4F0E94B33562506C
:105140007109810991096B870E945B352CE830E079
:1051500040E050E00E94B335665F7F4F8F4F9F4F16
:105160006887498547FD11C085E04802A0011124E8
:105170004A53534F6C856A0D8B85C12C92E0E92E02
:1051800008E025E08B0D0E94B906DF91CF911F91B9
:105190000F91FF90EF90DF90CF90BF90AF907F90F6
:1051A0006F905F904F9008950E945B3522E030E051
:1051B00040E050E00E94B3356B87611103C08DEF72
:1051C0008B87C2CF1B87C0CF80FDCBCF9A85390F8D
:1051D00039873F3F11F0333021F691959A87C1CF3F
:1051E0008F929F92AF92BF92CF92EF92FF920F93C6
:1051F0001F93CF93DF935C014A01F22EC02F6830DA
:10520000710509F063C0FC01958195FF5FC0428183
:105210005381148120912D0130912E0129303105C7
:10522000C4F520912F01309130012C5F3F4F24179E
:1052300035077CF1BA016F0D711D621773074CF1D0
:1052400020917A03265F211720F1612F70E0685FBB
:105250007F4F2617170609F0E4F49F7D9583409150
:10526000610150916201609163017091640190E06D
:1052700080E00E940719C1E08C2FDF91CF911F9130
:105280000F91FF90EF90CF90BF90AF909F908F9035
:105290000895CA010E945D10D82F812F0E945210DC
:1052A000182FC12CEE24E39408E02F2DA401682FC1
:1052B0008D2F0E94B906CC2359F096E0E92E01E02B
:1052C00029E0412F6D2FC5010E945428C0E0D4CFA2
:1052D00084E0E82E0EEF23E0412F6D2FC5010E94E0
:1052E0005428CACF0F9300E025E04CEB56E00E9413
:1052F000F028882329F0909139039F5F9093390318
:105300000F9108950F9300E025E040EA52E00E94DB
:10531000F028882359F02AE030E030932E012093C2
:105320002D0195E090936403909363030F9108958A
:105330000F9301E02BE04BE751E00E94F028882317
:1053400019F095E090933A030F9108950F9301E0BF
:105350002BE049E051E00E94F028882319F095E005
:1053600090933B030F9108952F923F924F925F923B
:105370006F927F928F929F92AF92BF92CF92DF9265
:10538000EF92FF920F931F93CF93DF9300D01F9262
:10539000CDB7DEB79B838A836630710509F475C08B
:1053A0006930710509F49EC06130710509F083C050
:1053B000FC01158115FF7FC040E060E10E941816D6
:1053C000892B09F478C01F7DEA81FB81158387E270
:1053D000E82E89E0F82E312C212C00E096E0892E71
:1053E000912CA12CB12C2CE0422E512C612C712C33
:1053F000EA81FB81F481F983EA81FB81C280D38059
:10540000C20CD31C01112DC00E945B35A501940173
:105410000E94B33510EF160F0E945B3522E030E09A
:1054200040E050E00E94B335F7012581672B682BDF
:10543000692B49F120612583412F6981C6010E94B2
:10544000570DF7018683C7010E94DB130F5FF6E05B
:105450002F0E311C87E0E80EF11C033049F681E085
:105460002BC0013041F40E945B35A30192010E94E0
:10547000B3351AEFD0CF0E945B35A50194010E948D
:10548000B3351AE0C8CF2F7ED6CFEA81FB81848165
:105490000E945210182FEA81FB81828193810E9421
:1054A0005D10C12CEE24E39408E02FE044E151E0CC
:1054B000612F0E94B90680E00F900F900F90DF914E
:1054C000CF911F910F91FF90EF90DF90CF90BF9001
:1054D000AF909F908F907F906F905F904F903F9094
:1054E0002F900895EA81FB81858181608583E3CFD8
:1054F000FC0101900020E9F73197AF01481B590BDF
:10550000BC018BEC93E00C94EC09CF92EF920F93DB
:10551000CF93DF93809139030E949B228BE192E02D
:105520000E94782A8AE00E949B226091DD076150E8
:10553000CCEDD7E08881C12CEE24E39408E025E08F
:105540004CEB56E08E5F0E94B9068881835F8883AA
:10555000DF91CF910F91EF90CF900895CF92EF927E
:105560000F93CF93C82F88E00E949918811104C02F
:1055700084E00E94991881110E94F818CC23C9F187
:10558000C12CEE24E39408E025E040EA52E068E014
:105590008DE30E94B90684E0E82E0EEF23E048E098
:1055A0006DE383EF98E00E94542885E18093DC0747
:1055B0008AE18093DD078DE192E00E94782A87E0FE
:1055C0008093DC078EE28093DD078DE292E00E94FB
:1055D000782A8BE28093DC0788E38093DD0781E4FF
:1055E00092E00E94782ACF910F91EF90CF900C9487
:1055F000852A8091D1039091D20383709927892BBA
:10560000A9F420911F01822F8D7F8C3029F4909175
:105610001E01919590931E0180911E01820F80932F
:105620001F018091360381508093360380911F01C2
:1056300092E1899FA0011124415D5A4FC12CEE24B3
:10564000E39400E129E0609136038C500E94B90692
:10565000C0E1C093DC0788E08093DD0786E492E038
:105660000E94782AC093DC078AE18093DD0783E5F6
:1056700092E00E94782AC093DC0784E28093DD07E1
:1056800083E692E00E94782AC093DC0786E3809349
:10569000DD070E94852A86E792E0CF910F91EF9077
:1056A000CF900C94782A0E9450361F920F920FB61A
:1056B0000F9211248F939F938091E1009091E100CC
:1056C000937F9093E10083FF0FC01092E90091E077
:1056D0009093EB001092EC0092E39093ED00109207
:1056E000620398E09093F00082FF22C093E09093D1
:1056F000E9009091F200992319F09AE39093E80061
:1057000090915303992341F09091530391509093BA
:105710005303911101C05D9A90916103992341F067
:1057200090916103915090936103911101C0289A67
:1057300084FF18C08091E2008E7E81608093E20039
:105740008091E1008F7E8093E100809154038E7EF2
:105750008061809354039F918F910F900FBE0F90A3
:105760001F90189580FFF7CF8091E2008E7E8061B8
:105770008093E2008091E1008E7E8093E100809131
:1057800054038E7E8160E5CF1F920F920FB60F9269
:105790001124CF92DF92EF92FF920F931F932F93DA
:1057A0003F934F935F936F937F938F939F93AF93A9
:1057B000BF93EF93FF93CF93DF93CDB7DEB76C9793
:1057C000DEBFCDBF1092E9008091E80083FF25C0C5
:1057D00068E0CE0145960E94DF0982EF8093E800E1
:1057E0008D8987FF39C09091E80090FFFCCF982FFA
:1057F000907609F034C19E894F89588D2F89F88C95
:10580000911131C0803861F5809152038093F1008D
:105810001092F1008EEF8093E8006C960FB6F8942A
:10582000DEBF0FBECDBFDF91CF91FF91EF91BF9152
:10583000AF919F918F917F916F915F914F913F9128
:105840002F911F910F91FF90EF90DF90CF900F90CD
:105850000FBE0F901F9018959EEF9093E800C7CF52
:105860001092F100D5CF913059F48111D3CF41304E
:10587000510581F6809152038D7F80935203CACFE8
:10588000933049F48111C6CF4130510519F680910A
:1058900052038260F2CF953041F48091E80080FF9E
:1058A000FCCF20682093E300B5CF963009F0A9C063
:1058B0000B8D1C8D22E01092E90010925003109283
:1058C0004F03F2122EC010924E0310924D030E940D
:1058D000AE091F8299E09983FA8291E09E8390EA53
:1058E00098879AEF998720914F0330915003275F53
:1058F0003F4F3C832B838D831092E900109250031D
:1059000010924F0310934E0300934D0349E050E073
:10591000BE016F5F7F4F80E00E9488090E94AE0940
:1059200079CF10934E0300934D030E949208DC013F
:1059300012960D911C910115110509F451C1D80160
:10594000ED91FC910480F581E02DBE016B5E7F4FEF
:10595000C8010995009709F03EC1F801008511853D
:10596000EACFF3E0FF120EC08F89882309F440C00C
:10597000823061F440E867E087E798E00E945509CB
:10598000811148CF81E28093EB0047CF813029F429
:1059900040E86BE08BE698E0F1CF833099F70E9406
:1059A0009208DC011296ED90FC908E010F5F1F4F64
:1059B0006801E114F10479F0D701ED91FC910680C2
:1059C000F781E02DB801C7010995080F111DF701F6
:1059D000E084F184EECFD8011C92F6010190002002
:1059E000E9F73197BF016C197D0940E0C601C6CFC8
:1059F00065E578E0FB01449150E080E80E94880969
:105A000009CF973009F4BECF983021F481E080931C
:105A1000F10000CF993009F0FDCE837009F0B2CFCC
:105A2000E3EAF1E081E031E096E32191222371F095
:105A30008093E9003093EB00DF0111972C912093C4
:105A4000EC009093ED008F5F873079F78EE78093BD
:105A5000EA001092EA008F8980936203DBCE8B8D7F
:105A60009C8D1092E9001092500310924F03909376
:105A70004E0380934D03898D811192C08E899D893B
:105A8000913A49F4813209F07DCF47E050E065E278
:105A900071E080E0B3CF913209F074CF833269F4C2
:105AA0008F89988DB0E0A0E080932101909322012E
:105AB000A0932301B0932401ADCE803269F480918C
:105AC000E80082FFFCCF67E085E291E00E94DF09F9
:105AD0008BEF8093E8009ECE823209F09BCE8F89B7
